:020000040800F2
:1000000000000320393C00088D0E00088F0E000808
:10001000910E0008930E0008950E000800000000E5
:10002000000000000000000000000000970E000823
:10003000990E0008000000009B0E00089D0E0008AD
:10004000893C0008893C0008893C0008893C00087C
:10005000893C0008893C0008893C0008893C00086C
:10006000893C0008893C0008893C0008893C00085C
:10007000893C0008893C0008893C0008893C00084C
:10008000893C0008893C0008893C0008893C00083C
:10009000893C0008893C0008893C0008893C00082C
:1000A000893C0008893C0008893C0008893C00081C
:1000B000893C0008893C0008893C0008893C00080C
:1000C000893C0008A50E0008B50E0008893C000810
:1000D000893C0008C50E0008D50E0008E50E000892
:1000E000893C0008893C0008893C0008893C0008DC
:1000F000893C0008893C0008893C0008893C0008CC
:10010000F50E0008893C0008893C0008893C00087D
:10011000893C0008893C0008893C0008893C0008AB
:10012000893C0008893C0008893C0008893C00089B
:10013000893C0008893C0008893C0008893C00088B
:10014000893C0008893C0008893C0008893C00087B
:10015000893C0008893C0008893C0008893C00086B
:10016000893C0008893C0008893C0008893C00085B
:10017000893C0008893C0008893C00080000000018
:10018000893C0008893C0008893C0008893C00083B
:10019000893C0008893C0008893C0008893C00082B
:0C01A000050F0008893C0008150F00083E
:1001AC0010B5054C237833B9044B13B10448AFF3A5
:1001BC0000800123237010BD3C04002000000000CF
:1001CC00583E000808B5034B1BB103490348AFF375
:1001DC00008008BD0000000040040020583E0008CC
:1001EC0053B94AB9002908BF00281CBF4FF0FF3192
:1001FC004FF0FF3000F074B9ADF1080C6DE904CE8E
:10020C0000F006F8DDF804E0DDE9022304B07047E5
:10021C002DE9F047089E0D4604468846002B4DD12B
:10022C008A42944668D9B2FA82F252B101FA02F3C8
:10023C00C2F1200120FA01F10CFA02FC41EA030898
:10024C0094404FEA1C45210CB8FBF5FE1FFA8CF7C5
:10025C0005FB1E8341EA03430EFB07F199420BD9C0
:10026C001CEB03030EF1FF3080F01E81994240F22B
:10027C001B81AEF1020E63445B1AA4B2B3FBF5F022
:10028C0005FB103344EA034400FB07F7A7420AD9E5
:10029C001CEB040400F1FF3380F00881A74240F20C
:1002AC00058164440238E41B40EA0E4000211EB173
:1002BC00D4400023C6E90043BDE8F0878B4208D93F
:1002CC00002E00F0EE800021C6E900050846BDE8CE
:1002DC00F087B3FA83F100294AD1AB4202D38242B0
:1002EC0000F2F980841A65EB030301209846002E76
:1002FC00E2D0C6E90048DFE702B9FFDEB2FA82F2CB
:10030C00002A40F09180A1EB0C054FEA1C471FFA24
:10031C008CFE0121B5FBF7F307FB1350250C45EAC6
:10032C0000450EFB03F0A84208D91CEB050503F1B0
:10033C00FF3802D2A84200F2CB8043462D1AA4B259
:10034C00B5FBF7F007FB105544EA05440EFB00FE25
:10035C00A64508D91CEB040400F1FF3502D2A645D2
:10036C0000F2BB802846A4EB0E0440EA03409EE753
:10037C00C1F120078B4022FA07FC4CEA030C20FA4F
:10038C0007F405FA01F31C43FD404FEA1C4900FA3F
:10039C0001F3B5FBF9F8200C1FFA8CFE09FB18557C
:1003AC0040EA054508FB0EF0A84202FA01F20BD90F
:1003BC001CEB050508F1FF3A80F08880A84240F25A
:1003CC008580A8F1020865442D1AA4B2B5FBF9F09A
:1003DC0009FB105544EA054500FB0EFEAE4508D955
:1003EC001CEB050500F1FF346CD2AE456AD902381E
:1003FC00654440EA0840A0FB0294A5EB0E05A5421B
:10040C00C846A64656D353D05EB1B3EB080265EB93
:10041C000E0505FA07F722FA01F3CD401F43C6E992
:10042C0000750021BDE8F087C2F1200320FA03F12A
:10043C000CFA02FC25FA03F395400D434FEA1C47D6
:10044C001FFA8CFEB3FBF7F107FB11302B0C43EAC0
:10045C00004301FB0EF0984204FA02F408D91CEB9D
:10046C00030301F1FF382FD298422DD9023963448E
:10047C001B1AADB2B3FBF7F007FB103345EA03458B
:10048C0000FB0EF3AB4208D91CEB050500F1FF385D
:10049C0016D2AB4214D902386544ED1A40EA014138
:1004AC0038E73146304607E78646E5E61846FAE671
:1004BC004B45A9D2B9EB020864EB0C0E0138A3E74B
:1004CC004046EAE7204694E74146D1E7D0467BE731
:1004DC00023B654432E7084609E76444023842E7C8
:1004EC00704700BF08B50D480D4B036000234360F7
:1004FC0001228260C3608362C2620363436300F0C3
:10050C00D9FE28B90121054800F0A2FF18B908BD91
:10051C0000F016FCF6E700F013FCF8E75804002096
:10052C0000B0024002680E4B9A4200D0704700B5F2
:10053C0083B000210191A3F5F0431A6B42F4000241
:10054C001A631B6B03F400030193019B0A465A20A8
:10055C0000F040FE5A2000F075FE03B05DF804FB7D
:10056C0000B002402DE9F04186B0002301930293C4
:10057C00039304930593314B1B6813B106B0BDE88C
:10058C00F0814FF001082D4BC3F80080002400943B
:10059C002B4B9A6B42EA08029A639B6B03EA0803A3
:1005AC000093009B4FF63F0301930227029703260B
:1005BC0004960C25059501A9224800F0ABFFCDF857
:1005CC000480029703940496059501A91E4800F037
:1005DC00A1FF48F2371301930297039404960595F3
:1005EC0001A91A4800F096FF4FF683730193029706
:1005FC0003940496059501A9154800F08BFFC023C0
:10060C000193029703940496059501A9114800F0F3
:10061C0081FF4CF2037301930297039404960595A2
:10062C0001A90D4800F076FF22462146302000F04B
:10063C00D1FD302000F006FEA0E700BF980400209A
:10064C00003802400014024000080240001802402A
:10065C0000100240001C0240000C024000B589B0A2
:10066C00002301930293039304930593069307933A
:10067C001448154A02600122426082600822C2605E
:10068C0010220261402242614FF480728261C36188
:10069C0003624FF480524262836202230193072269
:1006AC00029204210391049203220592069307936C
:1006BC00694402F099FF10B909B05DF804FB00F031
:1006CC003FFBF9E79C040020400100A008B5FFF7B0
:1006DC0049FF08BD30B58FB0002409940A940B94DF
:1006EC000C940D940094564B1A6B42F010021A6342
:1006FC001A6B02F010020092009A01941A6B42F4E9
:10070C0080721A631A6B02F480720192019A02943D
:10071C001A6B42F004021A631A6B02F00402029282
:10072C00029A03941A6B42F020021A631A6B02F0BD
:10073C0020020392039A04941A6B42F080021A630B
:10074C001A6B02F080020492049A05941A6B42F020
:10075C0001021A631A6B02F001020592059A0694C3
:10076C001A6B42F002021A631A6B02F00202069232
:10077C00069A07941A6B42F040021A631A6B02F045
:10078C0040020792079A08941A6B42F008021A6307
:10079C001B6B03F008030893089B0C230993032598
:1007AC000A9509A9274800F0B5FE40F6CA1309932B
:1007BC000A950B9409A9244800F0ACFE43F67E730D
:1007CC0009930A950B9409A9204800F0A3FE4FF455
:1007DC00707309930A950B9409A91D4800F09AFEB1
:1007EC0049F6B31309930A950B9409A9194800F01B
:1007FC0091FE4FF23C0309930A950B9409A91648F4
:10080C0000F088FE4FF4485309930A950B9409A9FC
:10081C00124800F07FFE43F6BC0309930A950B9433
:10082C0009A90F4800F076FE46F2086309930A9571
:10083C000B9409A90B4800F06DFE0FB030BD00BF42
:10084C000038024000100240002002400008024024
:10085C00001402400000024000040240001C024050
:10086C00000C02400018024008B51348134B0360FB
:10087C00134B436000238360C3604FF480420261DA
:10088C0043618361C361036201F0FAF850B900213E
:10089C00094801F0CEFF40B90021074801F0EBFFF9
:1008AC0030B908BD00F04CFAF1E700F049FAF3E773
:1008BC0000F046FAF5E700BFD004002000540040D9
:1008CC00A086010008B51348134B0360134B43601B
:1008DC0000238360C3604FF48042026143618361F3
:1008EC00C361036201F0CCF850B90021094801F052
:1008FC00A0FF40B90021074801F0BDFF30B908BD89
:10090C0000F01EFAF1E700F01BFAF3E700F018FA1A
:10091C00F5E700BF2405002000580040801A0600AF
:10092C0030B58BB000230593069307930893099376
:10093C000368314A934204D0304A934226D00BB01C
:10094C0030BD002501952E4C236B43F0020323632D
:10095C00236B03F002030193019BC0230593122325
:10096C00069301230793032308930423099305A9F2
:10097C00244800F0CFFD0295236C43F4001323644C
:10098C00236C03F400130293029BD8E70024039416
:10099C001B4D2B6B43F080032B632B6B03F08003FD
:1009AC000393039B30230593122306930123079390
:1009BC00032308930423099305A9134800F0AAFD07
:1009CC0004942B6C43F480032B642B6C03F4800392
:1009DC000493049B22462146212000F0FBFB21209E
:1009EC0000F030FC22462146222000F0F3FB2220AE
:1009FC0000F028FCA3E700BF005400400058004062
:100A0C000038024000040240001C024010B59AB0AD
:100A1C003424224600210DEB040003F055F9224644
:100A2C000021684603F050F94148424B0360002313
:100A3C0043608360C36003612822426109228261A2
:100A4C003022C2610B2202624FF40472426240F205
:100A5C001B1282624FF40572C26240F21F120263D3
:100A6C0080F8343080F8353080F8363001F0FEFFF5
:100A7C00002853D131230D934FF404730E930C23A0
:100A8C000F9340F21B13109302231193FF23129325
:100A9C00012313934FF480631493072315934FF0A2
:100AAC00504316934FF4F07317934FF488731893C5
:100ABC0000228DF864208DF865208DF866200DA934
:100ACC001B4802F0BFF860BB312300934FF4047352
:100ADC0001930C23029340F21B1303930023049302
:100AEC000522059206934FF4C062079207220892E2
:100AFC00114A09924FF4F0720A924FF488720B92D9
:100B0C008DF830308DF831308DF832300122694655
:100B1C00074802F097F838B91AB010BD00F010F978
:100B2C00A8E700F00DF9CFE700F00AF9F4E700BFF1
:100B3C00780500200068014000FA05D02DE9F0414D
:100B4C0090B000230B930C930D930E930F930268AC
:100B5C00714B9A4202D010B0BDE8F0810024019490
:100B6C0003F550435A6C42F080625A645A6C02F09E
:100B7C0080620192019A02941A6B42F010021A637D
:100B8C001A6B02F010020292029A03941A6B42F44E
:100B9C0080721A631A6B02F480720392039A0494A3
:100BAC001A6B42F020021A631A6B02F020020492B4
:100BBC00049A05941A6B42F080021A631A6B02F0C5
:100BCC0080020592059A06941A6B42F001021A6390
:100BDC001A6B02F001020692069A07941A6B42F005
:100BEC0002021A631A6B02F002020792079A089427
:100BFC001A6B42F040021A631A6B02F04002089220
:100C0C00089A09941A6B42F004021A631A6B02F0E8
:100C1C0004020992099A0A941A6B42F008021A63A8
:100C2C001B6B03F008030A930A9B70230B9302259A
:100C3C000C950E260F960BA9384800F06BFC40F271
:100C4C0035630B930C950D940E940F960BA93448A9
:100C5C0000F060FC4FF480630B930C950D940E9494
:100C6C000F960BA92F4800F055FC4CF60C530B9328
:100C7C000C950D940E940F960BA92B4800F04AFC82
:100C8C004FF04008CDF82C800C950D940E940F96D7
:100C9C000BA9264800F03EFC03230B930C950D94F6
:100CAC000E9409230F93224F0BA9384600F032FC07
:100CBC004FF4C6530B930C950D940E940F960BA9F1
:100CCC001C4800F027FC80230B930C950D940E947C
:100CDC000F960BA9184800F01DFCCDF82C800C9534
:100CEC000D940E940F960BA9144800F013FC4FF4BE
:100CFC0040730B930C950D940E940F960BA93846DC
:100D0C0000F008FC22462146582000F063FA5820D7
:100D1C0000F098FA1FE700BF006801400010024085
:100D2C000020024000140240001C0240000002405F
:100D3C00000402400018024000080240000C02406F
:100D4C0072B6FEE730B5A1B030252A46002114A8B2
:100D5C0002F0BAFF00240F9410941194129413947F
:100D6C002A46214603A802F0AFFF0194284B1A6CC7
:100D7C0042F080521A641B6C03F080530193019B68
:100D8C000294244B1A6842F440421A601B6803F424
:100D9C0040430293029B02231493012217921022C8
:100DAC0018921A931B9408221C92B4221D921E9323
:100DBC0004231F9314A801F0B7FF08BB01F076FFC2
:100DCC0000BB0F230F9302231093002311934FF4B6
:100DDC00A05312934FF48053139305210FA802F0E4
:100DEC00EBF988B908230393322307930223099361
:100DFC0000230C9303A802F0B5FA38B921B030BD2A
:100E0C00FFF79EFFFFF79CFFFFF79AFFFFF798FF96
:100E1C00003802400070004008B500F09DF9FFF763
:100E2C0091FFFFF757FCFFF7F1FD00F07DF800F0A4
:100E3C0095F800F0ADF8FFF717FDFFF743FDFFF74E
:100E4C000DFCFFF74FFBFEE782B0002100910B4B2E
:100E5C005A6C42F480425A645A6C02F480420092FA
:100E6C00009A01911A6C42F080521A641B6C03F0C8
:100E7C0080530193019B02B0704700BF00380240C1
:100E8C00FEE7FEE7FEE7FEE7FEE7704770477047B8
:100E9C0008B500F07BF908BD08B5024801F09AFBD3
:100EAC0008BD00BF2405002008B5024801F05FFC16
:100EBC0008BD00BF2405002008B5024802F07EFDE5
:100ECC0008BD00BF2006002008B5024802F076FDE0
:100EDC0008BD00BF6006002008B5024802F06EFD98
:100EEC0008BD00BFA006002008B5024802F09DFB1B
:100EFC0008BD00BF9C04002008B5024801F035FE77
:100F0C0008BD00BF7805002008B5024800F001FAC2
:100F1C0008BD00BF58040020024B4FF000629A60DD
:100F2C00704700BF00ED00E008B50A480A4B0360AB
:100F3C004FF4E133436000238360C36003610C22F0
:100F4C0042618361C36102F0ABFC00B908BDFFF7DD
:100F5C00F7FEFBE7200600200010014008B50A4808
:100F6C000A4B03604FF4E133436000238360C3609A
:100F7C0003610C2242618361C36102F091FC00B9F0
:100F8C0008BDFFF7DDFEFBE76006002000440040D3
:100F9C0008B50A480A4B03604FF4E1334360002361
:100FAC008360C36003610C2242618361C36102F000
:100FBC0077FC00B908BDFFF7C3FEFBE7A0060020D5
:100FCC000048004010B58CB0002307930893099398
:100FDC000A930B930368474A934207D0464A9342BD
:100FEC0030D0464A934258D00CB010BD0024019426
:100FFC00434B5A6C42F010025A645A6C02F01002C5
:10100C000192019A02941A6B42F001021A631B6B53
:10101C0003F001030293029B4FF4C0630793022376
:10102C00089303230A9307230B9307A9354800F071
:10103C0071FA22462146252000F0CCF8252000F03C
:10104C0001F9D1E7002403942D4B1A6C42F40032C1
:10105C001A641A6C02F400320392039A04941A6B09
:10106C0042F001021A631B6B03F001030493049B0F
:10107C000C2307930223089303230A9307230B9350
:10108C0007A9204800F046FA22462146262000F007
:10109C00A1F8262000F0D6F8A6E700240594184BFA
:1010AC001A6C42F480221A641A6C02F480220592A3
:1010BC00059A06941A6B42F002021A631B6B03F03A
:1010CC0002030693069B4FF4406307930223089395
:1010DC0003230A9307230B9307A90B4800F01AFA72
:1010EC0022462146272000F075F8272000F0AAF8A8
:1010FC007AE700BF00100140004400400048004067
:10110C0000380240000002400004024010B50446C2
:10111C000E4B18784FF47A73B3FBF0F30C4A10684B
:10112C00B0FBF3F000F09CF868B90F2C01D901204A
:10113C000AE0002221464FF0FF3000F04BF8054B3F
:10114C001C60002000E0012010BD00BF0400002046
:10115C00000000200800002008B50B4B1A6842F470
:10116C0000721A601A6842F480621A601A6842F4BB
:10117C0080721A60032000F01BF80020FFF7C6FFF6
:10118C00FFF762FE002008BD003C0240034A1168D4
:10119C00034B1B780B441360704700BFE006002024
:1011AC0004000020014B1868704700BFE0060020C7
:1011BC00074AD36823F4E0631B041B0C000200F401
:1011CC00E060034343F0BF6343F40033D3607047E4
:1011DC0000ED00E000B5194BDB68C3F30223C3F14B
:1011EC00070CBCF1040F28BF4FF0040C03F1040EE4
:1011FC00BEF1060F18D9033B4FF0FF3E0EFA0CFC64
:10120C0021EA0C0199400EFA03F322EA0303194375
:10121C0000280BDB0901C9B200F1604000F5614008
:10122C0080F800135DF804FB0023E5E700F00F00E5
:10123C000901C9B2024B1954F4E700BF00ED00E0FC
:10124C0014ED00E0002807DB00F01F024009012329
:10125C009340024A42F82030704700BF00E100E0A2
:10126C000138B0F1807F0BD24FF0E0235861054A72
:10127C00F02182F823100020986107221A61704730
:10128C000120704700ED00E090F83530DBB2022B06
:10129C0003D08023436501207047052380F8353047
:1012AC000268136823F0010313600020704790F864
:1012BC003500704748B310B5044690F83930FBB18F
:1012CC00022384F839302268136823F440336168B0
:1012DC000B4313602268536B23F00703A1680B4385
:1012EC0053632268136C23F47F5323F03F03E168AC
:1012FC000B4313640020E063012384F8393010BDE4
:10130C0080F83830FFF70EF9DAE7012070477047A4
:10131C00704770B5044603685D681E6815F0010FD0
:10132C0016D016F4807F13D01A6822F480721A60DB
:10133C00C36B43F00103C363036801229A60042367
:10134C0080F83930002380F83830436903B198476E
:10135C0015F0200F18D016F4005F15D02268136812
:10136C0023F400531360236820229A60E36B43F04C
:10137C000203E363042384F83930002384F8383003
:10138C0063690BB12046984715F0080F18D016F476
:10139C00006F15D02268136823F400631360236870
:1013AC0008229A60E36B43F00403E363042384F89C
:1013BC003930002384F8383063690BB120469847E4
:1013CC0015F0040F02D016F4806F20D115F0020F27
:1013DC0016D016F4007F13D02268136823F4007320
:1013EC001360236802229A60E36BE363012384F8A1
:1013FC003930002384F8383023690BB120469847E4
:10140C0015F0100F02D016F4805F0CD170BD22685D
:10141C00136823F480631360236804229A602046C7
:10142C00FFF775FFD2E72268136823F4805313602B
:10143C00236810229A60E36BE363012384F839304C
:10144C00002384F838302046FFF762FFDEE7000007
:10145C0090F83830012B59D030B4012380F8383053
:10146C00022380F8393000EB0113DA698B1C1B0165
:10147C00C35842EA0343093A012A1ED98A1C00EBDD
:10148C000212526843EA026341BB0468656A204A4F
:10149C002A4013436362026800EB01139C69946158
:1014AC00DB69093B012B10D9012380F8393000236B
:1014BC0080F83830184630BC70478A1C00EB02129A
:1014CC00526802F07F421343DEE7023100EB011158
:1014DC004B68026823F07F439362E5E70468E56993
:1014EC000B4A2A401343E361026800EB01139C6929
:1014FC001461DB69093B012BD6D8023100EB0111D9
:10150C004B68026823F07F431362CDE702207047DB
:10151C00F0FFFC0000230F2B00F2E680F0B583B047
:10152C003AE0092200E00022AA40324302346F4D17
:10153C0045F824206E4A14686FEA0C0224EA0C0564
:10154C004E6816F4803F01D04CEA0405684C2560C7
:10155C00646802EA04054E6816F4003F01D04CEAB8
:10156C000405634C6560A46802EA04054E6816F431
:10157C00801F01D04CEA04055D4CA560E468224054
:10158C004D6815F4001F01D04CEA0402584CE2607F
:10159C0001330F2B00F2A68001229A400C6804EA5A
:1015AC00020C32EA0404F3D14C68651E012D03D9F8
:1015BC00112C01D0122C12D185685E000324B4408A
:1015CC0025EA0405CC68B4402C438460456825EAC0
:1015DC0002054C68C4F300129A402A434260C56865
:1015EC004FEA430E032404FA0EF4E24325EA040501
:1015FC008C6804FA0EF42C43C4604C68022C01D0A5
:10160C00122C0FD1DD08083550F8257003F00704B3
:10161C00A6000F24B44027EA04070C69B4403C43ED
:10162C0040F82540046814404A6802F0030202FAAC
:10163C000EF2224302604A6812F0805FA8D00022AA
:10164C0001922C4A546C44F480445464526C02F45D
:10165C0080420192019A9C08A51C244A52F82560EC
:10166C0003F0030295000F22AA4026EA0206224A42
:10167C0090423FF458AF02F58062904222D002F5BE
:10168C008062904220D002F5806290421ED002F51A
:10169C00806290421CD002F5806290421AD002F512
:1016AC008062904218D002F58062904216D002F50A
:1016BC008062904214D002F5806290423FF431AFC8
:1016CC000A2231E701222FE702222DE703222BE722
:1016DC00042229E7052227E7062225E7072223E72C
:1016EC00082221E703B0F0BD704700BF003801406D
:1016FC00003C0140003802400000024090F83E30AF
:10170C00DBB2402B10D00369B3F5804F1BD0036DB7
:10171C00002B39D1436CC3F3C813026803F00603E2
:10172C0043F0F00313617047036D2BB9436C0268EF
:10173C0003F0FE0313617047436C026843F001032E
:10174C00DBB21361704790F83D30DBB2212B0FD028
:10175C00436C026843F00103DBB21361436B6BB162
:10176C00DB6B5BB10268536843F4006353607047F2
:10177C00436C026803F0FE031361EFE7836B33B134
:10178C00DB6B002BEED102E0036D012B00D0704718
:10179C00436CC3F3C813026803F0060343F0F10370
:1017AC001361F4E7436C0268DBB21361436B3BB12A
:1017BC00DB6B4BB10268536843F4006353607047B2
:1017CC00826B002AF4D1FAE7836BDB6B002BF1D12F
:1017DC00F5E710B48BB090F83E30DAB2C16A046B06
:1017EC0090F83D30DBB2222B0AD00023099303681A
:1017FC005A6909929B690993099B0BB010BC7047FD
:10180C00036D0BB9402A17D0036D1BB90369B3F5EF
:10181C00404F19D0438D9BB2002B25D10293036806
:10182C005A6902929A690292029A1A6842F40072F8
:10183C001A6000230365E0E7009303685A6900927D
:10184C009B690093009BD8E70023019303685A69B6
:10185C0001929A690192019A1A6842F480721A6094
:10186C00036D01330365C8E7438D9BB2012B25D073
:10187C00438D9BB2022B7BD00268136843F48063C8
:10188C00136003685A6812F4006F0ED011F5803F94
:10189C0007D0012905D0082903D0102901D020290F
:1018AC0003D15A6842F480525A60002308930368AB
:1018BC005A6908929B690893089BBAE711F5803F17
:1018CC0011D0082934D0202932D0122C2ED0042942
:1018DC0040D002293ED010293CD00268136823F472
:1018EC00806313603BE00268136823F48063136029
:1018FC0003685A6812F4006F0CD01A6822F48062E4
:10190C001A600023039303685A6903929B6903933B
:10191C00039B8EE7002204925A6904929A690492FE
:10192C00049A1A6842F400721A6082E70129CED038
:10193C000268136823F48063136000230693036822
:10194C005A6906929A690692069A1A6842F40072CB
:10195C001A606EE70268136843F480631360002317
:10196C00059303685A6905929B690593059B60E78B
:10197C0004290ED002290CD010290AD00268136851
:10198C0023F4806313600268136843F400631360EC
:10199C0004E00268136843F48063136003685A68B8
:1019AC0012F4006F0ED011F5803F07D0012905D03D
:1019BC00082903D0102901D0202903D15A6842F4F8
:1019CC0080525A600023079303685A6907929B69F7
:1019DC000793079B2DE7438D9BB25BB1426A03686B
:1019EC0012781A61436A01334362438D9BB2013B07
:1019FC009BB243857047438D9BB25BB103681A69F8
:101A0C00436A1A70436A01334362438D9BB2013BB4
:101A1C009BB243857047000082B0002301930E4BAC
:101A2C001B68DB080D4AA2FB03231B0A03EB830391
:101A3C000193019B013B0193019B33B103681B682C
:101A4C0013F4007FF5D1002004E0036C43F0200375
:101A5C000364012002B070470000002089B5F8141F
:101A6C00C36AB3F52A0F04D0C36AB3F12A4F03D06B
:101A7C0070470123C36270470823C362F8E7000074
:101A8C00002800F0CC8070B5044690F83D30002B57
:101A9C0077D0242384F83D302268136823F00103A7
:101AAC0013602268136843F40043136022681368C0
:101ABC0023F40043136001F035FC62685A4B9A42E0
:101ACC0064D85A4B98428CBF00230123002B40F062
:101ADC00A8805749A1FB00318B0C25686A6822F05D
:101AEC003F0242EA91426A6021680A6A22F03F0290
:101AFC0066684D4DAE424FD8013313430B622168DB
:101B0C00CA6922F44F4222F0FF026668464B9E429D
:101B1C004CD8431E7600B3FBF6F3013340F6FC7051
:101B2C00034278D0C3F30B031343CB6121680B68DA
:101B3C0023F0C003E269206A024313430B6021685F
:101B4C008B6823F4034323F0FF032269E06802430C
:101B5C0013438B602168CB6823F0FF036269A06993
:101B6C0002431343CB602268136843F001031360F4
:101B7C0000202064202384F83D30206384F83E004C
:101B8C0070BD80F83C30FEF7CBFE82E7294B9842C3
:101B9C008CBF0023012399E74FF4967505FB03F3E3
:101BAC00254DA5FB03539B090133A6E7A368BBB9DD
:101BBC00451E06EB460CB5FBFCF50135C5F30B05D4
:101BCC00B5FA85F56D0945BBC3B9013806EB46037B
:101BDC00B0FBF3F30133C3F30B0343F40043A3E76C
:101BEC00451E06EB860C0CEB8C0CB5FBFCF501359D
:101BFC00C5F30B05B5FA85F56D09E4E7013806EB7D
:101C0C00860303EB8303B0FBF3F30133C3F30B0342
:101C1C0043F4404388E7042386E7012384E701204B
:101C2C0070470120ACE700BFA08601007F841E0036
:101C3C0083DE1B43FF083D00D34D6210704708B58F
:101C4C00C26A90F83D30DBB2212B00D008BD438D29
:101C5C009BB263B1426A036812781A61436A01331A
:101C6C004362438D9BB2013B9BB24385EEE7082A4E
:101C7C0004D0202A02D012F5803F13D10268536899
:101C8C0023F4E06353600268136843F40073136039
:101C9C0000230363202280F83D2080F83E30FFF7BC
:101CAC00CDFFD3E70268536823F4E063536011233C
:101CBC000363002380F83E30202380F83D30FFF78B
:101CCC00BDFFC3E77047704708B590F83D30DAB2F6
:101CDC00438D9BB283B1416A036809781961436AE9
:101CEC0001334362438D9BB2013B9BB24385438DD1
:101CFC009BB20BB9292A00D008BD0268536823F4A3
:101D0C008063536021230363282380F83D30FFF761
:101D1C00DAFFF1E7704708B590F83D30DAB2438D41
:101D2C009BB283B103681969436A1970436A013322
:101D3C004362438D9BB2013B9BB24385438D9BB267
:101D4C000BB92A2A00D008BD0268536823F48063BB
:101D5C00536022230363282380F83D30FFF7DAFF1A
:101D6C00F1E7704708B590F83D3003F02803282BB5
:101D7C0007D003686FF002025A61002380F83C30F0
:101D8C0008BD0268536823F48063536011F0040F9C
:101D9C000BD0002311F0800F09D18289002180F82B
:101DAC003C101946FFF7DDFFEAE70123F2E7028B4F
:101DBC00F4E7704708B590F83D30DBB2C26A082AE8
:101DCC0001D0202A01D1282B06D0212B1ED003684C
:101DDC006FF480625A6108BD1A4BC3620268536883
:101DEC0023F4E063536003686FF480625A61026805
:101DFC00136823F48063136000230363202280F8AC
:101E0C003D2080F83E30FFF7D4FFE4E70D4BC36272
:101E1C0021230363202380F83D30002380F83E30DB
:101E2C000268536823F4E063536003686FF48062C4
:101E3C005A610268136823F480631360FFF743FF51
:101E4C00C9E700BF0000FFFF704708B590F83D30B0
:101E5C00026D9AB9C36C012B08D0836CC3F30723B2
:101E6C0002681361036D0133036508BD836C02685E
:101E7C00DBB21361036D02330365F6E7DBB2026D6F
:101E8C00012A23D0026D022AEFD1222B26D0428DBB
:101E9C0092B20AB1212B27D0428D92B2002AE4D102
:101EAC00212BE2D10268536823F4E063536002688B
:101EBC00136843F40073136000230363202280F83B
:101ECC003D2080F83E30FFF7BFFFCEE7836C026801
:101EDC00DBB21361036D01330365C6E70268136857
:101EEC0043F480731360C0E7426A036812781A6186
:101EFC00436A01334362438D9BB2013B9BB24385E2
:101F0C00B3E710B590F83D30DBB290F83E20D2B27A
:101F1C00C46A018D09B9212B04D0212B3BD0402A56
:101F2C0037D010BD082C04D0202C02D014F5803FE3
:101F3C0019D10268536823F4E06353600268136894
:101F4C0043F40073136000230363202380F83D30B7
:101F5C0090F83E30DBB2402B15D0002380F83E3099
:101F6C00FFF76CFEDDE70268536823F4E06353600F
:101F7C0011230363002380F83E30202380F83D308A
:101F8C00FFF75CFECDE7002380F83E30FFF75CFFE7
:101F9C00C7E7222BC5D1438D9BB22BB9026853687E
:101FAC0023F480635360BCE790F83E30DBB2402BE7
:101FBC000CD0426A036812781A61436A0133436297
:101FCC00438D9BB2013B9BB24385AAE7FFF73DFFD4
:101FDC00A7E7704708B5C26A438D9BB2042B14D097
:101FEC00438D9BB2032B22D0438D9BB2022B39D055
:101FFC0003681A69436A1A70436A01334362438D5A
:10200C009BB2013B9BB2438510E00268536823F4FA
:10201C008063536003681A69436A1A70436A013318
:10202C004362438D9BB2013B9BB2438508BD016863
:10203C004B6823F480634B60042A06D0022A04D038
:10204C000268136823F48063136003681A69436A97
:10205C001A70436A01334362438D9BB2013B9BB2BE
:10206C004385E3E7012A0BD0102A09D0042A38D083
:10207C00022A36D00268136843F40073136004E03C
:10208C000268136823F48063136003681A69436A57
:10209C001A70426A531C4362438D9BB2013B9BB244
:1020AC00438503681B695370436A01334362438D54
:1020BC009BB2013B9BB243850268536823F4407387
:1020CC005360202380F83D3090F83E30DBB2402B3B
:1020DC000DD0002380F83E3012230363FFF7F2FD8E
:1020EC00A4E70268136843F480631360CDE7002310
:1020FC0080F83E300363FFF76CFF97E7704790F86A
:10210C003D30DBB2222B00D0704710B50446438D16
:10211C009BB2032B16D903681A69436A1A70436A77
:10212C0001334362438D9BB2013B9BB24385438D8C
:10213C009BB2032B00D010BD0268536823F480635C
:10214C005360F8E7C26A022AF5D0012BF3D8FFF7E7
:10215C0063FC00282ED12268136823F4806313607B
:10216C002268536823F4E063536023681A69636A36
:10217C001A70636A01336362638D9BB2013B9BB23D
:10218C006385202384F83D3094F83E30DBB2402B3D
:10219C0008D0002384F83E30122323632046FFF737
:1021AC0091FDC8E7002384F83E3023632046FFF7F7
:1021BC0010FFC0E72268536823F4E0635360236880
:1021CC001A69636A1A70636A01336362638D9BB226
:1021DC00013B9BB26385202384F83D30002384F8B7
:1021EC003E302046FFF78AFFA5E7704700B583B065
:1021FC0000230193806B90F83D20D2B2324B1B68C8
:10220C00DB083249A1FB03131B0A03EB8303C3EB6B
:10221C00C3030193019B43B1019B013B01930368F1
:10222C001B6813F4007FF5D103E0036C43F020032B
:10223C000364436B0BB10021D963836B0BB1002199
:10224C00D96301680B6823F480630B60002343851A
:10225C00436B0BB100211965836B0BB10021196520
:10226C0001680B6823F001030B6090F83D30DBB282
:10227C00602B0ED002F02802282A14D0202380F8DC
:10228C003D30002380F83E30FFF738FF03B05DF897
:10229C0004FB202380F83D30002380F83E3003649B
:1022AC00FFF7A3FFF2E70268136843F00103136022
:1022BC000268136843F480631360002303632823CC
:1022CC0080F83D30E0E700BF0000002089B5F8142D
:1022DC0010B5044690F83D30DBB290F83E20D2B2F7
:1022EC00102A36D0402A34D003F02802282A38D0BD
:1022FC002268526812F4006F07D1602B05D020239E
:10230C0084F83D30002384F83E3000232363236897
:10231C005A6812F4006F48D05A6822F400625A606E
:10232C00626B92F83530DBB2012B20D0444B136535
:10233C00606BFEF7A9FF002849D02268136823F0D0
:10234C0001031360202384F83D30606B036D9847C4
:10235C003DE0222BC8D121680A6822F400620A6091
:10236C00C2E700232363282384F83D30CFE7A36B17
:10237C00334A1A65A06BFEF787FF40B323685A698E
:10238C0012F0400F05D01A69636A1A70636A013340
:10239C0063622268136823F001031360202384F81E
:1023AC003D30A06B036D984711E094F83D20D2B2FC
:1023BC00602A1FD05A6912F0400F05D01A69636A5F
:1023CC001A70636A013363622046FFF797FE236C31
:1023DC0013F00F0F04D02268536823F4E0635360AA
:1023EC0094F83D30DBB2226C12F0040F01D0282B94
:1023FC0018D010BD202284F83D20002222645A6996
:10240C0012F0400F05D01A69636A1A70636A0133BF
:10241C0063622268136823F0010313602046FFF700
:10242C00E4FED4E7074BE36200232363202284F805
:10243C003D2084F83E302046FFF7BBFCD9E700BFB7
:10244C00F92100080000FFFF30B583B0044690F876
:10245C003D50EDB20268536823F4E06353600023EF
:10246C00019303685A6901921A6842F001021A60DA
:10247C00019B0268136823F48063136003685A6835
:10248C0012F4006F38D0222D21D02A2D1FD0426B90
:10249C001268526892B24285428D92B21AB1026CA5
:1024AC0042F0040202645A6822F400625A60606BC3
:1024BC00FEF7FDFE01281FD0636B444A1A65606B62
:1024CC00FEF7E2FEC0B1606B036D984714E0A26B9F
:1024DC001268526892B26285628D92B21AB1226C05
:1024EC0042F0040222645A6822F400625A60A06B23
:1024FC00FEF7DDFE012842D1638D9BB233B3236816
:10250C005A6912F0040F0AD01A69636A1A70636A66
:10251C0001336362638D9BB2013B9BB2638523687D
:10252C005A6912F0400F0AD01A69636A1A70636A0A
:10253C0001336362638D9BB2013B9BB26385638DF8
:10254C009BB21BB1236C43F004032364236C13BBB9
:10255C002A2D25D094F83D30DBB2282B29D0236BC3
:10256C00222B01D0222D19D100232363202284F8A1
:10257C003D2084F83E302046FFF7CCFB0EE0A36BE9
:10258C00124A1A65A06BFEF77FFE0028B4D0A06B30
:10259C00036D9847B0E72046FFF79AFE03B030BDB5
:1025AC0000232363282384F83D302046FFF7B2FB39
:1025BC00D0E7074BE36200232363202284F83D20FD
:1025CC0084F83E302046FFF7F4FBE7E7F9210008DA
:1025DC000000FFFFF8B5044602685568C66A90F81B
:1025EC003E30DBB290F83D10102B14D0C8B2402B0B
:1025FC0011D0236C002B77D05369002113F0020FFC
:10260C0075D015F4007F72D0236C03B1916920460C
:10261C00FFF7A8FBF8BD9769516911F0010005D1CE
:10262C00B6F52A0FF6D0B6F12A4FF3D010B115F447
:10263C00007F27D111F0080F02D015F4007F28D1AC
:10264C0011F0020F02D015F4007F26D117F0040F01
:10265C002FD0526812F4006FDCD111F0800F05D02E
:10266C0015F4806F02D011F0040F1AD011F0040F82
:10267C00D0D015F4007FCDD0102B16D02046FFF70C
:10268C00E4FBC7E72046FFF7EBF92046FFF736F8E7
:10269C00C0E72046FFF786F8BCE72046FFF799F81D
:1026AC00B8E72046FFF72DFCB4E72046FFF7C7FA42
:1026BC00B0E7536813F4006FACD111F0400F05D0A4
:1026CC0015F4806F02D011F0040F09D011F0040F33
:1026DC00A0D015F4007F9DD02046FFF77BFC99E736
:1026EC002046FFF70CFD95E79169536986E713F0D7
:1026FC00100F02D015F4007F18D121281AD02928E8
:10270C0018D013F0400F05D015F4806F02D013F0E1
:10271C00040F28D013F0040F3FF47CAF15F4007FA6
:10272C003FF478AF2046FFF766F973E72046FFF7D2
:10273C008BFE6FE713F0800F05D015F4806F02D07D
:10274C0013F0040F0BD013F0040F3FF463AF15F428
:10275C00007F3FF45FAF2046FFF73DF95AE7204674
:10276C00FFF7B2FA56E72046FFF7D5FA52E7F8B56D
:10277C00044603685D695F6890F83E20D2B215F498
:10278C00807F07D017F4807F3CD06FF48071596143
:10279C00012600E0002615F4007F08D017F4807F96
:1027AC0005D046F0020623686FF40071596115F4E8
:1027BC00806F19D017F4807F16D0638D99B294F87E
:1027CC003D30DBB2206B202A1ED023686FF4806171
:1027DC00596146F00406102A01D0402A04D122681F
:1027EC00136843F40073136015F4006F08D017F4EA
:1027FC00807F05D046F0080623686FF400625A61AA
:10280C0086B9F8BD0026C6E70029DED1212B05D0FC
:10281C00292B03D0282BD8D12128D6D12046FFF73D
:10282C00C9FAE1E7236C1E4326642046FFF750FDEE
:10283C00E7E790F83D30DBB2202B01D00220704747
:10284C00242380F83D300268136823F001031360E1
:10285C000268536A23F0100353620268536A1943E7
:10286C0051620268136843F001031360202380F85F
:10287C003D300020704790F83D30DBB2202B01D06A
:10288C0002207047242380F83D300268136823F03F
:10289C00010313600268536A9BB223F00F031943C0
:1028AC0089B251620268136843F00103136020235C
:1028BC0080F83D3000207047F0B54D680468E3683F
:1028CC00C3F30B431D444FEAC21C04EBC214D4F8EF
:1028DC00883003F47043C4F888300B680468E668E9
:1028EC00C6F30B463344013304EBC21443EA0543ED
:1028FC00C4F88830CD680468E368C3F30A031D4448
:10290C0004EBC21EDEF88C3003F47043CEF88C302E
:10291C008B680468E668C6F30A063344013304EB9B
:10292C00C21443EA0543C4F88C30036803EBC213AA
:10293C00D3F8944024F00704C3F89440036803EBE5
:10294C00C2130C69C3F8944091F8317091F832506D
:10295C008E69046804EBC21404F1840ED4F89C3024
:10296C000024CEF8184091F8303043EA072343EAAC
:10297C000543056805EBC21543EA0663C5F89C30B0
:10298C00036803EBC213D3F8985025F0FF05C3F886
:10299C009850036803EBC2134D69C3F89850036851
:1029AC0003EBC213D3F8A05025F4E06525F007051E
:1029BC00C3F8A0500D6A036803EBC213CE6935430C
:1029CC00C3F8A050036803EBC213D3F8AC50C3F8A0
:1029DC00AC40036803EBC2124B6AC2F8AC300C6912
:1029EC006CB1012C3BD0042C3BD0022C08D0032C16
:1029FC0039D0072C01D0012402E0022400E0042489
:102A0C0002686244D2F8B03003F0E023C2F8B03070
:102A1C008B6A04FB03F54B680A689B1A04FB03F3EF
:102A2C0003330268624443EA0543C2F8B0300368DA
:102A3C006344D3F8B42022F4FF6222F00702C3F8F7
:102A4C00B42003686344CA6AC3F8B42003689C4486
:102A5C00DCF8843043F00103CCF88430F0BD03245F
:102A6C00CEE70224CCE70224CAE70000002875D088
:102A7C0010B5044690F8A130002B6AD0022384F8DC
:102A8C00A1302268936923F07043936121688A69AD
:102A9C006368A0680343E06803432069034313435E
:102AAC008B6121688A682E4B1A408A602068826884
:102ABC00A169D4F814C041EA0C410A438260216830
:102ACC00CA681A40CA602068C268216AD4F81CC05F
:102ADC0041EA0C410A43C26021680A691A400A6142
:102AEC0020680269A16AD4F824C041EA0C410A4367
:102AFC00026121684A6913404B61E06A21684B69A5
:102B0C00226B42EA004213434B6194F8350094F86F
:102B1C0036301B042168CA6A02F07F42CA622168FF
:102B2C00CA6A43EA002394F8340003431343CB628C
:102B3C002268536B43F0060353632268936943F096
:102B4C00010393610020C4F8A400012384F8A13090
:102B5C0010BD80F8A030FDF7F1FF8FE70120704722
:102B6C0000F800F070477047704770B50446036872
:102B7C009D6B5E6B15F0040F02D016F0040F12D192
:102B8C0015F0020F02D016F0020F21D115F0010F33
:102B9C0002D016F0010F32D115F0080F02D016F04A
:102BAC00080F3DD170BD5A6B22F004025A630368C2
:102BBC000422DA63D0F8A43043F00103C0F8A43047
:102BCC0080F8A120002380F8A030FFF7CBFFD7E7D7
:102BDC002268536B23F00203536323680222DA63E7
:102BEC00D4F8A4301343C4F8A430042384F8A130DF
:102BFC00002384F8A0302046FFF7B4FFC6E7226814
:102C0C00536B23F00103536322680123D36384F8CD
:102C1C00A130002384F8A0302046FFF7A4FFBBE7C7
:102C2C002268536B23F00803536323680822DA638A
:102C3C00012384F8A130002384F8A0302046FFF74C
:102C4C0093FFAFE7F8B590F8A030012B2CD00446D9
:102C5C000D461646012780F8A070022380F8A1309B
:102C6C004FF0340C0CFB020C0CF1380C8E46BEE809
:102C7C000F00ACE80F00BEE80F00ACE80F00BEE898
:102C8C000F00ACE80F00DEF80030CCF80030324614
:102C9C0029462046FFF710FE23685F6284F8A17076
:102CAC00002084F8A000F8BD0220FCE710B582B02B
:102CBC0000230193194B1A6C42F080521A641B6C5E
:102CCC0003F080530193019B154B01221A64FEF70C
:102CDC0069FA0446134B5B6813F4803F08D1FEF786
:102CEC0061FA001BB0F57A7FF4D9032002B010BD55
:102CFC000B4B01225A64FEF755FA0446094B5B68EC
:102D0C0013F4003F07D1FEF74DFA001BB0F57A7FA4
:102D1C00F4D90320EAE70020E8E700BF00380240BE
:102D2C0000000E4200700040002800F0DA8170B5FF
:102D3C0082B00446036813F0010F3BD09F4B9B6895
:102D4C0003F00C03042B2CD09C4B9B6803F00C035E
:102D5C00082B21D06368B3F5803F4FD0B3F5A02F7B
:102D6C0052D0964B1A6822F480321A601A6822F4F8
:102D7C0080221A606368002B50D0FEF713FA0546C8
:102D8C008E4B1B6813F4003F14D1FEF70BFA401B5B
:102D9C006428F5D90320ABE1884B5B6813F4800FF2
:102DAC00D8D0864B1B6813F4003F03D06368002B0C
:102DBC0000F09981236813F0020F54D07F4B9B686D
:102DCC0013F00C0F3ED07D4B9B6803F00C03082BCB
:102DDC0033D0E368002B68D0794B01221A60FEF7E0
:102DEC00E1F90546754B1B6813F0020F54D1FEF741
:102DFC00D9F9401B0228F5D9032079E16F4A1368F1
:102E0C0043F480331360B5E76C4B1A6842F48022AC
:102E1C001A601A6842F480321A60ABE7FEF7C2F906
:102E2C000546664B1B6813F4003FC3D0FEF7BAF996
:102E3C00401B6428F5D903205AE1604B5B6813F4FE
:102E4C00800FC6D15D4B1B6813F0020F03D0E368F3
:102E5C00012B40F04A81594A136823F0F803216989
:102E6C0043EAC1031360236813F0080F42D063696F
:102E7C006BB3534B0122C3F8802EFEF793F9054632
:102E8C004E4B5B6F13F0020F34D1FEF78BF9401BE6
:102E9C000228F5D903202BE1484A136823F0F803E4
:102EAC00216943EAC1031360DDE7454B00221A6038
:102EBC00FEF778F90546414B1B6813F0020FD2D090
:102ECC00FEF770F9401B0228F5D9032010E13C4BAA
:102EDC000022C3F8802EFEF765F90546374B5B6F71
:102EEC0013F0020F06D0FEF75DF9401B0228F5D94E
:102EFC000320FDE0236813F0040F77D02F4B1B6CDD
:102F0C0013F0805F33D1002301932C4B1A6C42F0E9
:102F1C0080521A641B6C03F080530193019B0125B2
:102F2C00284B1B6813F4807F23D0A368012B34D06B
:102F3C00052B38D0214B1A6F22F001021A671A6F39
:102F4C0022F004021A67A368002B3DD0FEF72AF981
:102F5C0006461A4B1B6F13F0020F46D1FEF722F9EF
:102F6C00801B41F288339842F3D90320C0E000253E
:102F7C00D6E7144A136843F480731360FEF712F912
:102F8C000646104B1B6813F4807FCED1FEF70AF96E
:102F9C00801B0228F5D90320AAE0084A136F43F0DE
:102FAC0001031367CFE7054B1A6F42F004021A674F
:102FBC001A6F42F001021A67C5E700BF00380240E1
:102FCC000000474200700040FEF7ECF806464F4BFD
:102FDC001B6F13F0020F08D0FEF7E4F8801B41F2D0
:102FEC0088339842F3D9032082E0E5B9A369002B1A
:102FFC007DD0464A926802F00C02082A51D0022B6E
:10300C0017D0434B00221A66FEF7CCF804463F4B10
:10301C001B6813F0007F42D0FEF7C4F8001B022897
:10302C00F5D9032064E0394A136C23F08053136400
:10303C00DCE7374B00221A66FEF7B4F80546334B33
:10304C001B6813F0007F06D0FEF7ACF8401B02287B
:10305C00F5D903204CE0E369226A1343626A43EA20
:10306C008213A26A5208013A43EA0243E26A43EA33
:10307C000263264A5360264B01221A66FEF792F829
:10308C000446224B1B6813F0007F06D1FEF78AF82A
:10309C00001B0228F5D903202AE0002028E000209C
:1030AC0026E0012B26D0194B5B6803F48001E26902
:1030BC00914221D103F03F02216A8A421ED1616AFA
:1030CC0047F6C0721A408A421AD103F44032A16A00
:1030DC008A4217D103F07063E26A934214D1002044
:1030EC0006E001207047012002E0012000E00020F2
:1030FC0002B070BD0120FBE70120F9E70120F7E7E2
:10310C000120F5E70120F3E70120F1E70038024048
:10311C000000474208B5254B9B6803F00C03042BB9
:10312C003FD0082B3FD1214B5A6802F03F025B681D
:10313C0013F4800F12D01D4B5968C1F388111C4831
:10314C000023A1FB0001FDF74BF8184B5B68C3F3A0
:10315C00014301335B00B0FBF3F025E0134B5968DE
:10316C00C1F3881C4FEA4C11B1EB0C006EEB0E0E48
:10317C004FEA8E1343EA90638101091A63EB0E0345
:10318C00DB0043EA5173C90011EB0C0C43F1000353
:10319C00990200234FEA8C2041EA9C51FDF720F85C
:1031AC00D3E7034800E0034808BD00BF00380240E5
:1031BC0040787D010024F400002800F09B8070B55D
:1031CC000D4604464F4B1B6803F00F038B4208D28D
:1031DC00CBB24C4A1370136803F00F038B4240F0D0
:1031EC008B80236813F0020F17D013F0040F04D058
:1031FC00454A936843F4E0539360236813F0080F37
:10320C0004D0414A936843F4604393603E4A936808
:10321C0023F0F003A1680B439360236813F0010FB4
:10322C0032D06368012B21D09A1E012A25D9364A47
:10323C00126812F0020F61D033498A6822F003023F
:10324C0013438B60FDF7AEFF06462F4B9B6803F0D4
:10325C000C036268B3EB820F16D0FDF7A3FF801B43
:10326C0041F288339842F0D9032042E0264A126892
:10327C0012F4003FE0D101203BE0234A126812F027
:10328C00007FD9D1012034E01E4B1B6803F00F03E3
:10329C00AB4207D9EAB21B4B1A701B6803F00F0341
:1032AC00AB422DD1236813F0040F06D0164A936855
:1032BC0023F4E053E1680B439360236813F0080F89
:1032CC0007D0114A936823F46043216943EAC10390
:1032DC009360FFF71FFF0C4B9B68C3F303130B4A60
:1032EC00D35CD8400A4B18600A4B1868FDF70EFFE8
:1032FC00002070BD012070470120FAE70120F8E79B
:10330C000120F6E7003C024000380240703E000805
:10331C000000002008000020014B1868704700BF17
:10332C000000002008B5FFF7F7FF044B9B68C3F3C0
:10333C008223034AD35CD84008BD00BF003802404A
:10334C00803E000808B5FFF7E7FF044B9B68C3F30A
:10335C004233034AD35CD84008BD00BF003802405A
:10336C00803E000830B583B00446036813F0430F69
:10337C0015D1236813F00C0F6AD1236813F0200FBA
:10338C0040F0BF80236813F0100F00F0238194F8F5
:10339C002C20914BC3F8E021002003B030BD8F4BA3
:1033AC0000229A66FDF7FEFE05468D4B1B6813F056
:1033BC00006F06D0FDF7F6FE431B022BF5D9032058
:1033CC00EBE7236813F0010F07D06268A3681B07B3
:1033DC0043EA8213824AC2F88430236813F0020F46
:1033EC0015D07F4AD2F884106068E3681B0643EA64
:1033FC00801301F0E0410B43C2F88430D2F88C30DA
:10340C0023F01F03E16901390B43C2F88C302368A8
:10341C0013F0400F0AD06268E3681B0643EA82137C
:10342C00A26843EA02736E4AC2F884306B4B0122E5
:10343C009A66FDF7B7FE0546694B1B6813F0006FE3
:10344C0097D1FDF7AFFE401B0228F5D90320A4E766
:10345C00624B00221A67FDF7A5FE0546604B1B6800
:10346C0013F0005F06D0FDF79DFE431B022BF5D930
:10347C00032092E7236813F0040F16D0584AD2F8B1
:10348C008810206963691B0643EA801301F0E04150
:10349C000B43C2F88830D2F88C3023F4F853216AED
:1034AC00013943EA0123C2F88C30236813F0080F6A
:1034BC0014D04B4AD2F88830216903F0706343EA88
:1034CC008113A16943EA0173C2F88830D2F88C30B9
:1034DC0023F44033616A0B43C2F88C303F4B01221A
:1034EC001A67FDF75FFE05463D4B1B6813F0005F46
:1034FC007FF443AFFDF756FE401B0228F4D903209E
:10350C004BE700230193364B1A6C42F080521A643D
:10351C001B6C03F080530193019B324A136843F4F4
:10352C0080731360FDF73EFE05462E4B1B6813F4AB
:10353C00807F06D1FDF736FE401B0228F5D903200B
:10354C002BE7274B1B6F13F4407314D0A26A02F4C1
:10355C0040729A420FD0224B1A6F22F440721F49CC
:10356C000120C1F8400E0020C1F8400E1A671B6FF5
:10357C0013F0010F12D1A36A03F44072B2F5407F2D
:10358C001DD0174A936823F4F813936014490B6FFA
:10359C00A26AC2F30B0213430B67F3E6FDF702FEBC
:1035AC0005460F4B1B6F13F0020FE4D1FDF7FAFD2C
:1035BC00401B41F288339842F3D90320EDE60849C9
:1035CC008A6822F4F81223F0704323F440731343F7
:1035DC008B60DBE70020E0E600104742000047422A
:1035EC000038024000700040E0B138B50D4604468A
:1035FC0090F82C308BB1022384F82C30214651F8F2
:10360C00040B00F077FA62682946206800F0AEFAE5
:10361C00012384F82C30002038BD80F82D30FDF7C4
:10362C0055F8E8E701207047704703689B6913F071
:10363C00010F00D1704710B50446FFF7F5FF226863
:10364C00536943F00103536110BD0268D36823F43E
:10365C009073D3600268536923F0010353612023F4
:10366C0080F83A30704790F83930DBB2212B01D01A
:10367C00022070478368B3F5805F17D0036A5A1C29
:10368C0002621A7803685A60C38C9BB2013B9BB2EE
:10369C00C3844BB90268D36823F08003D3600268FB
:1036AC00D36843F04003D36000207047036A1B8843
:1036BC000268C3F30803536003691BB9036A02333E
:1036CC000362E1E7036A01330362DDE738B50446C0
:1036DC000268136923F44053C1680B431361836878
:1036EC000269134342691343C2691A430168CB68E8
:1036FC0023F4164323F00C031343CB600268536985
:10370C0023F4407381690B435361C369B3F5004FD4
:10371C0035D00368604A934200F0918002F58062D4
:10372C00934200F08C80FFF7FDFD00210318494106
:10373C001B1841F10001C90041EA5371DB00181854
:10374C0063684FEA83024FEA937341F10001FCF77F
:10375C0047FD524DA5FB00325109642303FB1103B5
:10376C001B013233A5FB03235B0903F0F00202EBD0
:10377C00011203F00F03216813448B608AE0036885
:10378C00454A93422FD002F5806293422BD0FFF72B
:10379C00C9FD0023021843EB0301121841F100018B
:1037AC00C90041EA5271D200101841F1000162685F
:1037BC0092185B41FCF714FD384DA5FB0032510902
:1037CC00642303FB1103DB003233A5FB03235B09EA
:1037DC005A0002F4F87202EB011203F0070321689D
:1037EC0013448B6056E0FFF7ADFD0023021843EB4A
:1037FC000301121841F10001C90041EA5271D200D3
:10380C00101841F10001626892185B41FCF7E8FC6A
:10381C00224DA5FB00325109642303FB1103DB008D
:10382C003233A5FB03235B095A0002F4F87202EB56
:10383C00011203F00703216813448B602AE0FFF7A1
:10384C0081FD0021031849411B1841F10001C900F9
:10385C0041EA5371DB00181863684FEA83024FEAA0
:10386C00937341F10001FCF7BBFC0C4DA5FB00323E
:10387C005109642303FB11031B013233A5FB032302
:10388C005B0903F0F00202EB011203F00F03216855
:10389C0013448B6038BD00BF001001401F85EB51F5
:1038AC0058B310B5044690F839300BB3242384F880
:1038BC0039302268D36823F40053D3602046FFF7D5
:1038CC0005FF2268136923F490431361226853693E
:1038DC0023F02A0353612268D36843F40053D36066
:1038EC000020E063202384F8393084F83A3010BD8E
:1038FC0080F83830FDF766FBD8E701207047704739
:10390C0008B50168CA6822F04002CA60202280F81B
:10391C003920FFF7F4FF002008BD704708B590F878
:10392C003A30DBB2222B46D18368B3F5805F0FD0DF
:10393C0003690BBB03685A68836A591C81621A704D
:10394C00C38D9BB2013B9BB2C385F3B1002008BD74
:10395C00826A036943B903685B68C3F30803138085
:10396C00836A02338362EBE703685B68DBB2138024
:10397C00836A01338362E3E703685B68826A511CE4
:10398C00816203F07F031370DAE70268D36823F0D7
:10399C002003D3600268D36823F48073D360026879
:1039AC00536923F001035361202380F83A30FFF769
:1039BC00B4FF0020CBE70220C9E7704710B50446DE
:1039CC0002681368D168526913F00F0005D113F027
:1039DC00200F02D011F0200F13D128B112F00102E8
:1039EC0013D111F4907F10D113F0800F02D011F08D
:1039FC00800F6CD113F0400F02D011F0400F6AD140
:103A0C0010BD2046FFF78AFFFAE713F0010F06D02E
:103A1C0011F4807F03D0E06B40F00100E06313F001
:103A2C00040F04D01AB1E06B40F00200E06313F015
:103A3C00020F04D01AB1E06B40F00400E06313F005
:103A4C00080F07D011F0200F00D11AB1E26B42F031
:103A5C000802E263E26B002AD2D013F0200F02D0EE
:103A6C0011F0200F21D123685B6903F04003E26B56
:103A7C0012F0080F00D123B32046FFF7E6FD2368B0
:103A8C005A6912F0400F18D05A6922F040025A615C
:103A9C00636B73B1124A1A65606BFDF7F5FB002876
:103AAC00AED0606B036D9847AAE72046FFF736FF50
:103ABC00D9E72046FFF781FFA2E72046FFF77DFFFD
:103ACC009EE72046FFF779FF0023E36398E7204643
:103ADC00FFF7C9FD94E72046FFF712FF90E700BF00
:103AEC00F13A000808B5806B0023C385C384FFF747
:103AFC0064FF08BD30B40B68012B1AD0026822F4A5
:103B0C00FF4222F07F024B688C682343CC6823432E
:103B1C000C6923434C6923438C692343CC692343AD
:103B2C000C6A2343496A0B4313430360002030BCE7
:103B3C007047026822F4F842CB690C6A1C434B6A4A
:103B4C001C431443426822F4FF4222F07F024B686C
:103B5C008D682B43CD682B430D692B434D692B434B
:103B6C0089690B43134304604360DFE7012A2AD0C1
:103B7C00826802F070420B68013BD1F804C00CF172
:103B8C00FF3C43EA0C13D1F808C00CF1FF3C43EAAC
:103B9C000C23D1F80CC00CF1FF3C43EA0C33D1F8E8
:103BAC0010C00CF1FF3C43EA0C43D1F814C00CF1EB
:103BBC00FF3C43EA0C538969013943EA016313431F
:103BCC0083600020704700B5826822F4700C2CF4DE
:103BDC00704CCA6802F1FF3E4B695A1E120542EA4C
:103BEC000E3242EA0C02C36803F0704C0B68013BC6
:103BFC00D1F804E00EF1FF3E43EA0E13D1F808E0D1
:103C0C000EF1FF3E43EA0E23D1F810E00EF1FF3E19
:103C1C0043EA0E438969013943EA016343EA0C0321
:103C2C008260C36000205DF804FB0000DFF834D034
:103C3C00002103E00C4B5B58435004310B480C4BF8
:103C4C0042189A42F6D30B4A02E0002342F8043B96
:103C5C00094B9A42F9D3FDF75FF900F011F8FDF723
:103C6C00DBF8704700000320A03E00080000002095
:103C7C003C0400203C040020E8060020FEE7000085
:103C8C0070B50D4E0D4D761BB61006D0002455F8B0
:103C9C00043B01349847A642F9D1094E094D761BD5
:103CAC0000F0D4F8B61006D0002455F8043B0134CB
:103CBC009847A642F9D170BD943E0008943E000886
:103CCC009C3E0008943E0008830730B548D0541E33
:103CDC00002A3FD0CAB2034601E0013C3AD303F8B4
:103CEC00012B9D07F9D1032C2DD9CDB245EA052521
:103CFC000F2C45EA054536D9A4F1100222F00F0C21
:103D0C0003F1200EE6444FEA121C03F1100242E9C3
:103D1C00045542E9025510327245F8D10CF10102FA
:103D2C0014F00C0F03EB021204F00F0C13D0ACF1D7
:103D3C00040323F003030433134442F8045B93425B
:103D4C00FBD10CF003042CB1CAB21C4403F8012BB8
:103D5C009C42FBD130BD64461346002CF4D1F9E7EC
:103D6C0003461446BFE71A46A446E0E7024B13B1DC
:103D7C00024800F005B8704700000000993D0008AB
:103D8C00002301461A46184600F01AB838B5084BFD
:103D9C00084D5B1B9C1007D0043B1D44013C55F89F
:103DAC0004399847002CF9D1BDE8384000F054B8DC
:103DBC00A03E00089C3E0008704700BF704700BF43
:103DCC002DE9F047DFF87CA00646DAF800009846AB
:103DDC000F469146FFF7F0FF1B4B1B68D3F8484189
:103DEC0024B365681F2D26DC5EB96B1C0235DAF82E
:103DFC000000636044F82570FFF7E0FF0020BDE889
:103E0C00F08704EB85010123C1F88890D4F8882150
:103E1C00AB401A43022EC4F88821C1F80881E4D1C2
:103E2C00D4F88C211343C4F88C31DEE703F5A67467
:103E3C00C3F84841D5E7DAF80000FFF7BFFF4FF0B1
:103E4C00FF30DCE738040020883E0008F8B500BFDE
:103E5C00F8BC08BC9E467047F8B500BFF8BC08BC5F
:043E6C009E467047B7
:103E7000000000000000000001020304060708091A
:0C3E8000000000000102030410000020FC
:083E8C0090C3FF7F010000005C
:083E9400793D0008D10100088E
:043E9C00AD0100086C
:103EA0000024F400010000001000000000000000E9
:103EB00000000000FC02002064030020CC0300206E
:103EC00000000000000000000000000000000000F2
:103ED00000000000000000000000000000000000E2
:103EE00000000000000000000000000000000000D2
:103EF00000000000000000000000000000000000C2
:103F000000000000000000000000000000000000B1
:103F100000000000000000000000000000000000A1
:103F20000000000000000000000000000000000091
:103F30000000000000000000000000000000000081
:103F40000000000000000000000000000000000071
:103F50000000000000000000010000000000000060
:103F60000E33CDAB34126DE6ECDE05000B00000025
:103F70000000000000000000000000000000000041
:103F80000000000000000000000000000000000031
:103F90000000000000000000000000000000000021
:103FA0000000000000000000000000000000000011
:0C42D0000000000000000000E4060020D8
:0400000508003C397A
:00000001FF
